:100000000C94B3000C9409010C94DB000C94DB00FD
:100010000C94DB000C94DB000C94DB000C94DB00F4
:100020000C94DB000C94DB000C94DB000C94DB00E4
:100030000C94DB000C94DB000C94DB000C94DB00D4
:100040000C9454060C94DB000C94DB000C94DB0045
:100050000C94DB000C94DB000C94DB000C94DB00B4
:100060000C94DB000C94DB0005010906A1010507D7
:1000700019E029E715002501750195088102950110
:100080007508810395057501050819012905910277
:1000900095017503910395067508150025650507FB
:1000A000190029658100C009022200010100806455
:1000B00009040000010300000009210101000122E0
:1000C0003F000705810308000A120110010000002B
:1000D00008811734240001010200012A0350007234
:1000E000006F0020005400720069006E006B006514
:1000F00000740020004B006500790062006F006111
:100100000072006400120341006400610066007226
:100110000075006900740004030904000000080071
:1001200002010000030407000000000000000001BD
:10013000020408102040800102040810200102047B
:10014000081020040404040404040402020202024D
:100150000203030303030300000000230026002919
:1001600000005C03490611241FBECFEFD8E0DEBFBC
:10017000CDBF11E0A0E0B1E0E0E4F1E102C0059004
:100180000D92A231B107D9F721E0A2E1B1E001C09F
:100190001D92AB37B207E1F711E0C6E6D1E004C02B
:1001A0002297FE010E947307C236D107C9F70E9449
:1001B00038070C949E080C940000A82FB92F80E0FB
:1001C00090E041E050EA609530E009C02D9182272F
:1001D0009795879510F084279527305EC8F36F5F59
:1001E000A8F30895EADF8D939D930895A6E08827EC
:1001F0009927AA9569F00197E1F34F99FCCF4F9B9E
:10020000FECF81E09927A9B1019611F0A478D9F722
:100210000895CF93CFB7CF93DF93C3954F9BE9F763
:100220004F9B0BC04F9B09C04F9B07C04F9B05C006
:100230004F9B03C04F9B01C08BC06F93C0915A016D
:10024000DD27CF59DE4F2F9365E54F9B03C02F91DC
:100250006F91E6CF0F931F934F9320E040E15F93A0
:1002600009B1047807FB27F93F9350E03BE039C020
:10027000147840642F77012F5F5F1EC0406819B16A
:1002800014782F7752501FC0406409B12F7704783B
:10029000D1F15F5F00C023C0406219B12F7714789D
:1002A00091F15F5F00C025C004781027515012F40F
:1002B0005D5F0000115027952C3F19B1C8F61478E6
:1002C0000127015027952C3FC8F64227499309B1D1
:1002D000047810274F73115027952C3FA8F64695A8
:1002E000469519B1147879F00127015027952C3FD4
:1002F00098F66B5A60F3315009B1B0F600C011E0C6
:100300001CBB002719C03B503195C31BD04011E0E6
:100310001CBB0881033C09F10B34F9F02091580112
:100320001981110F1213EDCF4A81441F093651F183
:100330000D3211F0013E29F700935F013F915F916B
:100340004F911F910F912F916F91CCB3C0FD65CF4D
:10035000DF91CF91CFBFCF91189520915F012223DC
:1003600069F310915D01112391F5343092F13093CE
:100370005D012093590110915A013BE0311B3093EC
:100380005A0127C000915D0101300CF50AE54F705C
:1003900049F43091080134FD1DC000930801C1E407
:1003A000D1E01CC030914C0134FD14C000934C01CD
:1003B000CDE4D1E013C0052710E000C000000BB968
:1003C0001AC0052710E0221F1DC010E021C04AE519
:1003D00002C032ED432FC4E1D0E032E01AB114681C
:1003E0005F9A0BB11AB954E820E865E320FF0527AE
:1003F0000BB9279517951C3FF0F66695B8F7B1F73E
:1004000020FF05270BB9279517951C3FD0F6279598
:10041000179517FF052700001C3F0BB9B0F629916F
:100420003A9519F70B7710915E01110FC651D04024
:100430000BB911F01093580111E01CBB00681AB100
:100440001B77402F4B7754E05A95F1F70BB91AB947
:100450004BB974CFCF92DF92EF92FF92CF93DF939D
:10046000EC0188810E940E0721E0892B09F020E031
:100470002C87222381F08E81811120C081E08E8320
:100480000E949E066C597F4F8F4F9F4F68877987D8
:100490008A879B872FC0C884D984EA84FB840E9402
:1004A0009E066C157D058E059F0560F188859985F2
:1004B000AA85BB85892B8A2B8B2B21F18E818823E2
:1004C00059F0C884D984EA84FB840E949E06C6162B
:1004D000D706E806F906F0F08F81882359F0C88422
:1004E000D984EA84FB840E949E066C157D058E05E6
:1004F0009F0578F18C85DF91CF91FF90EF90DF9091
:10050000CF90089540E060E08CE291E00E941D05EC
:100510001E82F0CF88859985AA85BB85892B8A2B79
:100520008B2BD1F28C858823B9F2188619861A860E
:100530001B868F81882351F00E949E066C597F4F45
:100540008F4F9F4F688779878A879B874A816C8105
:1005500008C08C85882371F28E81882359F240E08F
:1005600060E08CE291E00E941D05C4CFAF92BF9283
:10057000CF92DF92EF92FF920F931F93CF93DF936F
:10058000EC017B016A0159018C899D890A9714F558
:100590008DE090E00E944707FC01F182E082D38267
:1005A000C282108611861286138616821486B58240
:1005B000A48281E0012B09F480E087838C899D89E6
:1005C000DC01AA0FBB1FAC0FBD1FED93FC9301967E
:1005D0009D8B8C8BDF91CF911F910F91FF90EF90AE
:1005E000DF90CF90BF90AF9008950F931F938CE250
:1005F00091E00E94190500E010E020E030E04BE0BF
:1006000050E063E070E082E191E00E94B60220E0F9
:1006100030E046E150E064E070E082E191E00E9469
:10062000B60220E030E047E050E065E070E082E1B3
:1006300091E00E94B60220E030E049E050E066E040
:1006400070E082E191E00E94B60220E030E044E0F8
:1006500050E068E070E082E191E00E94B60220E0A4
:1006600030E043EE50E069E070E082E191E00E940A
:10067000B6021F910F9108950F931F93CF93DF93AD
:100680008CE291E00E941B0502E111E0C0E0D0E0A5
:100690008091260190912701C817D90744F4F801E9
:1006A000819191918F010E942A022196F1CFDF91D1
:1006B000CF911F910F91089510922701109226015A
:1006C0000895F8948BB18B778BB9579A2FEF84E309
:1006D0009CE0215080409040E1F700C00000579816
:1006E0000E940C05789408950C94E9030E94E90394
:1006F00080914C0184FFFACF68E089E391E00C948B
:10070000C403FC0181E080932A01808180768032DD
:1007100099F58181833099F038F48130E1F08230AD
:1007200059F586E091E00DC08A3029F08B3079F0E0
:10073000893011F518C08381809306011DC089E2BC
:1007400091E090935C0180935B0181E00895838147
:100750008093290111C089E391E090935C0180931B
:100760005B0188E0089581E02681378121303105E1
:1007700009F080E08195089580E00895FC01808172
:100780008093280181E00895CF93C62F20914C01DA
:1007900024FF07C020914D0138E8232720934D0105
:1007A00003C02AE520934C01DC01EEE4F1E09C2F2C
:1007B0009E0F8D918193892F8E1B1816D4F36C2F69
:1007C0008EE491E00E94F200CC5FC0934C01CF9187
:1007D0000895CF93DF9360915D01635067FDBEC0C4
:1007E00080915A01CCE0D0E0C81BD109CF59DE4F2F
:1007F000809159018D3209F09FC0683009F0ACC07A
:1008000083EC809341018AE58093080110922B01CB
:100810008881807621F0CE010E9481037AC09A817E
:1008200010924A018981811106C010924B012AE47D
:1008300031E082E06AC0853019F490935E0162C0B5
:10084000863009F049C08B81813019F489EC90E041
:100850001AC0823041F487EA90E090935C01809363
:100860005B0182E235C08330F1F4911108C087E169
:1008700091E090935C0180935B0184E029C091300A
:1008800041F485E091E090935C0180935B0182E10B
:100890001FC09230E1F48BED90E090935C01809367
:1008A0005B018AE215C0813241F489EB90E09093BC
:1008B0005C0180935B0189E00BC0823241F488E6E1
:1008C00090E090935C0180935B018FE301C080E036
:1008D00090E490932B011DC0883069F0893019F4A1
:1008E000909360010FC08A3049F08B3059F48BE44B
:1008F00080934D0107C020E631E002C02AE431E0D8
:1009000081E003C02AE431E080E030935C01209371
:100910005B018F3F39F4988197FD8E8190E8909329
:100920002B0107C09F81911104C09E81981708F484
:10093000892F8093070110C080912B0187FF0CC085
:10094000CE010E94BE038F3F21F48EE18093080107
:1009500003C081111092070110925D01809108017E
:1009600084FF4DC0809107018F3F09F448C0C82F14
:10097000893008F0C8E08C1B809307018091410109
:1009800098E8892780934101CC2361F180915B0134
:1009900090915C0120912B0126FF12C0A2E4B1E0EE
:1009A00021E431E020953095280F391F4C2F4A0F54
:1009B000F901EA0FFB1FE491ED934A13F9CF09C047
:1009C000E2E4F1E0DC012C2F2E0F3D9131932E1348
:1009D000FCCF01962FEF2C0F820F911D90935C019D
:1009E00080935B016C2F82E491E00E94F200CC5F67
:1009F000CC3019F08FEF80930701C093080184E198
:100A000099B1947831F48150D9F710925E01109227
:100A10005801DF91CF910895E9E6F0E0808182608E
:100A20008083E89A8BE480934D018AE580934C01A2
:100A300008950C9461030C9474036093390110922F
:100A40003A0140933B0110923C0110923D011092FB
:100A50003E0110923F01109240010C947603CF9317
:100A6000DF931F92CDB7DEB76983DA01F9011082F7
:100A70001C929FEB980F9A3130F48D5380838981BB
:100A800081FF0AC00CC09FE9980F9A3150F48D5530
:100A90008083898181FF03C082E08C93CDC01C924A
:100AA000CBC090ED980F9A3028F4803309F49AC0A7
:100AB0008351C1C08F3209F4B9C0D0F5863209F430
:100AC00085C0F0F4813209F46DC058F48A3009F41D
:100AD000B1C0803209F4ACC0893009F0ADC08BE2FE
:100AE000AAC0833209F466C008F492C0843209F4C3
:100AF00065C0853209F0A0C082E08C9382E29BC081
:100B00008A3209F467C040F4883209F467C008F4F7
:100B100081C082E08C9366C08C3209F47FC008F4F7
:100B200067C08D3209F462C08E3209F47BC084C084
:100B30008C3509F469C0D0F48D3309F45BC058F4E6
:100B40008B3309F463C008F067C08A3309F074C0BE
:100B500082E08C935BC08F3309F466C008F460C0F8
:100B6000803421F18B3509F447C066C08036E1F14D
:100B700038F48E3539F108F443C082E08C9336C0E6
:100B80008C3709F43FC030F48B3709F055C082E050
:100B90008C9332C08D3791F18E3709F04DC082E0D1
:100BA0008C9322C082E08C938EE145C082E08C93CE
:100BB0008FE141C082E08C9380E23DC082E08C9363
:100BC00081E239C082E08C9383E235C082E08C936D
:100BD00084E231C082E08C9385E22DC082E08C9368
:100BE00086E229C087E227C085E325C08DE223C0C5
:100BF00082E08C938EE21FC08FE21DC082E08C9356
:100C000080E319C082E08C9381E315C083E313C0B5
:100C100082E08C9384E30FC082E08C9386E30BC068
:100C200082E08C9387E307C082E08C9388E303C063
:100C30008CE201C088E280830F90DF91CF9108950C
:100C40000F931F93CF93DF9300D0CDB7DEB78C0106
:100C5000862F9E012F5F3F4FAE014E5F5F4F609129
:100C600028010E942F0549816A81C8010E941D0543
:100C700040E060E0C8010E941D050F900F90DF91D9
:100C8000CF911F910F9108950E94200681E090E07E
:100C9000089510922F0110922E018DE091E0909313
:100CA0002D0180932C0108951F920F920FB60F9281
:100CB00011242F933F938F939F93AF93BF93809172
:100CC000310190913201A0913301B0913401309102
:100CD000300123E0230F2D3720F40196A11DB11D13
:100CE00005C026E8230F0296A11DB11D20933001F7
:100CF0008093310190933201A0933301B09334017A
:100D00008091350190913601A0913701B091380161
:100D10000196A11DB11D8093350190933601A093DA
:100D20003701B0933801BF91AF919F918F913F915F
:100D30002F910F900FBE0F901F9018952FB7F8941A
:100D400060913101709132018091330190913401B1
:100D50002FBF0895789484B5826084BD84B5816086
:100D600084BD85B5826085BD85B5816085BDEEE6B3
:100D7000F0E0808181608083E1E8F0E01082808192
:100D800082608083808181608083E0E8F0E0808100
:100D900081608083E1EBF0E0808184608083E0EB20
:100DA000F0E0808181608083EAE7F0E08081846008
:100DB0008083808182608083808181608083808164
:100DC000806880831092C1000895833081F028F4F8
:100DD000813099F08230A1F008958730A9F08830F1
:100DE000B9F08430D1F4809180008F7D03C0809170
:100DF00080008F7780938000089584B58F7702C03C
:100E000084B58F7D84BD08958091B0008F7703C035
:100E10008091B0008F7D8093B0000895CF93DF93D1
:100E2000282F30E0F901E55EFE4F8491F901E15D84
:100E3000FE4FD491F901ED5BFE4FC491CC2391F0AC
:100E400081110E94E506EC2FF0E0EE0FFF1FE95A3A
:100E5000FE4FA591B4912C912D2381E090E021F4D7
:100E600080E002C080E090E0DF91CF910895089586
:100E70000E94AA060E9437070E94F502C0E0D0E057
:100E80000E943C032097E1F30E940000F9CF0C94EC
:100E90007707CF92DF92EF92FF920F931F93CF933A
:100EA000DF936C017A01EB01E60EF71E00E010E023
:100EB000CE15DF0561F06991D601ED91FC910190AD
:100EC000F081E02DC6010995080F191FF1CFC80167
:100ED000DF91CF911F910F91FF90EF90DF90CF9016
:100EE0000895EE0FFF1F0590F491E02D0994CF9324
:100EF000DF938230910510F482E090E0E091790177
:100F0000F0917A0120E030E0A0E0B0E0309739F1D4
:100F10004081518148175907B8F04817590771F4B3
:100F200082819381109729F013969C938E93129748
:100F30002CC090937A018093790127C02115310547
:100F400031F04217530718F0A901DB0101C0EF018E
:100F50009A01BD01DF010280F381E02DD7CF211579
:100F60003105F9F0281B390B2430310580F48A81D2
:100F70009B816115710521F0FB019383828304C07D
:100F800090937A0180937901FE01329644C0FE016C
:100F9000E20FF31F81939193225031093983288303
:100FA0003AC02091770130917801232B41F42091B0
:100FB0000201309103013093780120937701209151
:100FC0000001309101012115310541F42DB73EB7E3
:100FD0004091040150910501241B350BE0917701EC
:100FE000F0917801E217F307A0F42E1B3F0B2817AE
:100FF000390778F0AC014E5F5F4F2417350748F092
:101000004E0F5F1F50937801409377018193919326
:1010100002C0E0E0F0E0CF01DF91CF910895CF93DF
:10102000DF93009709F487C0FC0132971382128284
:10103000C0917901D0917A01209781F4208131818A
:10104000280F391F809177019091780182179307BB
:1010500079F5F0937801E09377016DC0DE0120E02F
:1010600030E0AE17BF0750F412964D915C91139784
:101070009D014115510509F1DA01F3CFB383A28334
:1010800040815181840F951F8A179B0771F48D91C0
:101090009C911197840F951F0296918380831296DD
:1010A0008D919C911397938382832115310529F4A7
:1010B000F0937A01E09379013EC0D9011396FC9335
:1010C000EE9312974D915D91A40FB51FEA17FB07A0
:1010D00079F480819181840F951F0296D901119630
:1010E0009C938E938281938113969C938E931297F7
:1010F000E0E0F0E08A819B81009719F0FE01EC01AD
:10110000F9CFCE01029628813981820F931F209159
:101110007701309178012817390769F4309729F45D
:1011200010927A011092790102C013821282D09338
:101130007801C0937701DF91CF910895F894FFCFA4
:1011400000007B0180007DFF5A000000004406493A
:02115000070096
:00000001FF
