:100000000C94BD000C9413010C94E5000C94E500D5
:100010000C94E5000C94E5000C94E5000C94E500CC
:100020000C94E5000C94E5000C94E5000C94E500BC
:100030000C94E5000C94E5000C94E5000C94E500AC
:100040000C9414070C94E5000C94E5000C94E50066
:100050000C94E5000C94E5000C94E5000C94E5008C
:100060000C94E5000C94E50005010906A1010507C3
:1000700019E029E715002501750195088102950110
:100080007508810395057501050819012905910277
:1000900095017503910395067508150025650507FB
:1000A000190029658100C009022200010100806455
:1000B00009040000010300000009210101000122E0
:1000C0003F000705810308000A120110010000002B
:1000D00008811734240001010200012A0350007234
:1000E000006F0020005400720069006E006B006514
:1000F00000740020004B006500790062006F006111
:100100000072006400120341006400610066007226
:100110000075006900740004030904000000080071
:1001200002010000030407000000000000000001BD
:10013000020408102040800102040810200102047B
:10014000081020040404040404040402020202024D
:100150000203030303030300000000230026002919
:100160000000000000250028002B000000000024F3
:100170000027002A00000B04090711241FBECFEF3F
:10018000D8E0DEBFCDBF11E0A0E0B1E0E2E3F3E1F3
:1001900002C005900D92A231B107D9F721E0A2E18A
:1001A000B1E001C01D92AF37B207E1F711E0CAE735
:1001B000D1E004C02297FE010E946C08C637D10727
:1001C000C9F70E9431080C9497090C940000A82FDD
:1001D000B92F80E090E041E050EA609530E009C03E
:1001E0002D9182279795879510F084279527305E6B
:1001F000C8F36F5FA8F30895EADF8D939D93089588
:10020000A6E088279927AA9569F00197E1F34F990D
:10021000FCCF4F9BFECF81E09927A9B1019611F049
:10022000A478D9F70895CF93CFB7CF93DF93C39531
:100230004F9BE9F74F9B0BC04F9B09C04F9B07C0DB
:100240004F9B05C04F9B03C04F9B01C08BC06F935A
:10025000C0915E01DD27CB59DE4F2F9365E54F9BA3
:1002600003C02F916F91E6CF0F931F934F9320E020
:1002700040E15F9309B1047807FB27F93F9350E011
:100280003BE039C0147840642F77012F5F5F1EC0B8
:10029000406819B114782F7752501FC0406409B1DB
:1002A0002F770478D1F15F5F00C023C0406219B19D
:1002B0002F77147891F15F5F00C025C00478102774
:1002C000515012F45D5F0000115027952C3F19B179
:1002D000C8F614780127015027952C3FC8F642270D
:1002E000499309B1047810274F73115027952C3F7B
:1002F000A8F64695469519B1147879F00127015072
:1003000027952C3F98F66B5A60F3315009B1B0F63F
:1003100000C011E01CBB002719C03B503195C31B26
:10032000D04011E01CBB0881033C09F10B34F9F00B
:1003300020915C011981110F1213EDCF4A81441FE6
:10034000093651F10D3211F0013E29F70093630196
:100350003F915F914F911F910F912F916F91CCB36E
:10036000C0FD65CFDF91CF91CFBFCF911895209180
:100370006301222369F310916101112391F5343057
:1003800092F13093610120935D0110915E013BE099
:10039000311B30935E0127C00091610101300CF5E3
:1003A0000AE54F7049F43091080134FD1DC00093F7
:1003B0000801C5E4D1E01CC03091500134FD14C0E7
:1003C00000935001C1E5D1E013C0052710E000C043
:1003D00000000BB91AC0052710E0221F1DC010E055
:1003E00021C04AE502C032ED432FC4E1D0E032E043
:1003F0001AB114685F9A0BB11AB954E820E865E3A2
:1004000020FF05270BB9279517951C3FF0F6669539
:10041000B8F7B1F720FF05270BB9279517951C3FB3
:10042000D0F62795179517FF052700001C3F0BB93D
:10043000B0F629913A9519F70B7710916201110FD7
:10044000C651D0400BB911F010935C0111E01CBBF8
:1004500000681AB11B77402F4B7754E05A95F1F79B
:100460000BB91AB94BB974CF5F926F927F928F928A
:100470009F92AF92BF92CF92DF92EF92FF920F9333
:100480001F93CF93DF93CDB7DEB76C016DB67EB609
:100490004C01A12CB12CE12CF12C55245394D60104
:1004A00058968D919C915997A816B9062CF5D401B0
:1004B0000D911D914D01F80180810E94070821E0F6
:1004C000892B09F020E0D80156962C9356972223C9
:1004D00009F49DC016968C91811199C00E945E0707
:1004E000F801228533854485558526173707480747
:1004F000590708F459C08BC0E114F10409F43FC056
:100500000DB71EB7EDB7FEB7EE19FF090FB6F89499
:10051000FEBF0FBEEDBF4DB75EB74F5F5F4FF60139
:1005200020E030E060E080E090E0D6015896AD90A9
:10053000BC9059972A153B050CF0DBC0A080B18018
:10054000D50117967C914C017723A1F0BFEF8B1A50
:100550009B0A840F951FD50112967C91DC017C9338
:1005600080819181DC0114968D919C911597009763
:1005700009F0682F2F5F3F4F3296C401D6CF40E07D
:1005800060E080E391E0DF91CF911F910F91FF90A8
:10059000EF90DF90CF90BF90AF909F908F907F9023
:1005A0006F905F900C94CC05F801568257820E94A0
:1005B0005E076C5E7F4F8F4F9F4FD8011A966D93E9
:1005C0007D938D939C931D9718968C91882369F049
:1005D0000E945E076C597F4F8F4F9F4FD8011E9628
:1005E0006D937D938D939C935197F801818588231A
:1005F00079F10E945E076E5C7F4F8F4F9F4FD8014D
:1006000052966D937D938D939C93559721C0F801DD
:100610008681882321F0F8018689882329F1F80151
:100620008681882361F00E945E07F8012289338960
:10063000448955892617370748075907A0F1F8015B
:100640008681882329F0D80156968C91811132C079
:10065000D80156968C91882319F0BFEFEB1AFB0A4C
:10066000EFEFAE1ABE0A1BCF0E945E07D8011A96A2
:100670002D913D914D915C911D97261737074807A5
:10068000590768F60E945E076C5E7F4F8F4F9F4F41
:10069000D8011A966D937D938D939C931D97169612
:1006A0001C92169704C08185882349F2D8011796B9
:1006B0001C92CECF0E945E07F801268537854089BF
:1006C0005189261737074807590710F68085882370
:1006D00009F4BECF8781852587830E945E076C5908
:1006E0007F4F8F4F9F4FF80166877787808B918B65
:1006F000AFCF2E2D80E391E00E94DE050FB6F89477
:100700001EBF0FBE0DBF0FB6F8947EBE0FBE6DBEEE
:10071000DF91CF911F910F91FF90EF90DF90CF90DD
:10072000BF90AF909F908F907F906F905F90089553
:10073000CF93DF9380E391E00E94C80580912A0166
:1007400090912B010C975CF587E190E00E944008A6
:10075000EC0183E090E09983888362E00E94CE07F9
:1007600086E190E09B838A831A861B861C861D8601
:100770001E821F821E8A1D821C8218861986809105
:100780002A0190912B01FC01EE0FFF1FEE5EFE4F40
:10079000D183C083019690932B0180932A0180918D
:1007A0002A0190912B010C975CF587E190E00E9463
:1007B0004008EC0189E090E09983888362E00E9420
:1007C000CE0788E090E09B838A831A861B861C866E
:1007D0001D861E821F821E8A1D821C821886198613
:1007E00080912A0190912B01FC01EE0FFF1FEE5E1C
:1007F000FE4FD183C083019690932B0180932A01F1
:10080000DF91CF91089580E391E00E94CA0582E1D3
:1008100091E00C94340210922B0110922A01089559
:10082000F8948BB18B778BB9579A2FEF84E39CE0C8
:10083000215080409040E1F700C0000057980E948E
:10084000BB05789408950C9498040E9498048091B4
:10085000500184FFFACF68E08DE391E00C947304BB
:10086000FC0181E080932E0180818076803299F5B1
:100870008181833099F038F48130E1F0823059F58C
:1008800086E091E00DC08A3029F08B3079F0893014
:1008900011F518C08381809306011DC08DE291E09F
:1008A0009093600180935F0181E00895838180933C
:1008B0002D0111C08DE391E09093600180935F0161
:1008C00088E0089581E0268137812130310509F0E3
:1008D00080E08195089580E00895FC0180818093F7
:1008E0002C0181E00895CF93C62F2091500124FF61
:1008F00007C02091510138E823272093510103C0FC
:100900002AE520935001DC01E2E5F1E09C2F9E0FE7
:100910008D918193892F8E1B1816D4F36C2F82E54D
:1009200091E00E94FC00CC5FC0935001CF910895EC
:10093000CF93DF9360916101635067FDBEC08091EA
:100940005E01CCE0D0E0C81BD109CB59DE4F8091CD
:100950005D018D3209F09FC0683009F0ACC083ECB6
:10096000809345018AE58093080110922F018881C8
:10097000807621F0CE010E9430047AC09A811092D4
:100980004E018981811106C010924F012EE431E0A1
:1009900082E06AC0853019F49093620162C08630AB
:1009A00009F049C08B81813019F489EC90E01AC0BC
:1009B000823041F487EA90E09093600180935F0178
:1009C00082E235C08330F1F4911108C087E191E0F3
:1009D0009093600180935F0184E029C0913041F4DD
:1009E00085E091E09093600180935F0182E11FC0F8
:1009F0009230E1F48BED90E09093600180935F0181
:100A00008AE215C0813241F489EB90E09093600155
:100A100080935F0189E00BC0823241F488E690E068
:100A20009093600180935F018FE301C080E090E4C8
:100A300090932F011DC0883069F0893019F490938C
:100A400064010FC08A3049F08B3059F48BE48093F5
:100A5000510107C024E631E002C02EE431E081E01C
:100A600003C02EE431E080E03093600120935F0109
:100A70008F3F39F4988197FD8E8190E890932F01F4
:100A800007C09F81911104C09E81981708F4892F97
:100A90008093070110C080912F0187FF0CC0CE0109
:100AA0000E946D048F3F21F48EE18093080103C002
:100AB000811110920701109261018091080184FF59
:100AC0004DC0809107018F3F09F448C0C82F89307D
:100AD00008F0C8E08C1B809307018091450198E8DD
:100AE000892780934501CC2361F180915F0190912A
:100AF000600120912F0126FF12C0A6E4B1E025E499
:100B000031E020953095280F391F4C2F4A0FF901FD
:100B1000EA0FFB1FE491ED934A13F9CF09C0E6E415
:100B2000F1E0DC012C2F2E0F3D9131932E13FCCFE1
:100B300001962FEF2C0F820F911D909360018093EF
:100B40005F016C2F86E491E00E94FC00CC5FCC300A
:100B500019F08FEF80930701C093080184E199B1E8
:100B6000947831F48150D9F71092620110925C01AF
:100B7000DF91CF910895E9E6F0E080818260808383
:100B8000E89A8BE4809351018AE58093500108959F
:100B90000C9410040C94230460933D0110923E01C8
:100BA00040933F0110924001109241011092420186
:100BB00010924301109244010C94250460933D016E
:100BC00010923E01FA018FE391E0DC013A2F381BCD
:100BD000321718F431913D93F9CF0C942504CF933B
:100BE000DF931F92CDB7DEB76983DA01F901108276
:100BF0001C929FEB980F9A3130F48D53808389813A
:100C000081FF0AC00CC09FE9980F9A3150F48D55AE
:100C10008083898181FF03C082E08C93CDC01C92C8
:100C2000CBC090ED980F9A3028F4803309F49AC025
:100C30008351C1C08F3209F4B9C0D0F5863209F4AE
:100C400085C0F0F4813209F46DC058F48A3009F49B
:100C5000B1C0803209F4ACC0893009F0ADC08BE27C
:100C6000AAC0833209F466C008F492C0843209F441
:100C700065C0853209F0A0C082E08C9382E29BC0FF
:100C80008A3209F467C040F4883209F467C008F476
:100C900081C082E08C9366C08C3209F47FC008F476
:100CA00067C08D3209F462C08E3209F47BC084C003
:100CB0008C3509F469C0D0F48D3309F45BC058F465
:100CC0008B3309F463C008F067C08A3309F074C03D
:100CD00082E08C935BC08F3309F466C008F460C077
:100CE000803421F18B3509F447C066C08036E1F1CC
:100CF00038F48E3539F108F443C082E08C9336C065
:100D00008C3709F43FC030F48B3709F055C082E0CE
:100D10008C9332C08D3791F18E3709F04DC082E04F
:100D20008C9322C082E08C938EE145C082E08C934C
:100D30008FE141C082E08C9380E23DC082E08C93E1
:100D400081E239C082E08C9383E235C082E08C93EB
:100D500084E231C082E08C9385E22DC082E08C93E6
:100D600086E229C087E227C085E325C08DE223C043
:100D700082E08C938EE21FC08FE21DC082E08C93D4
:100D800080E319C082E08C9381E315C083E313C034
:100D900082E08C9384E30FC082E08C9386E30BC0E7
:100DA00082E08C9387E307C082E08C9388E303C0E2
:100DB0008CE201C088E280830F90DF91CF9108958B
:100DC0000F931F93CF93DF9300D0CDB7DEB78C0185
:100DD000862F9E012F5F3F4FAE014E5F5F4F6091A8
:100DE0002C010E94EF0549816A81C8010E94CC054F
:100DF00040E060E0C8010E94CC050F900F90DF91A9
:100E0000CF911F910F9108950E94E00681E090E03C
:100E1000089510923301109232018DE091E0909389
:100E200031018093300108951F920F920FB60F92F7
:100E300011242F933F938F939F93AF93BF938091F0
:100E4000350190913601A0913701B0913801309170
:100E5000340123E0230F2D3720F40196A11DB11D8D
:100E600005C026E8230F0296A11DB11D2093340171
:100E70008093350190933601A0933701B0933801E8
:100E80008091390190913A01A0913B01B0913C01D0
:100E90000196A11DB11D8093390190933A01A09351
:100EA0003B01B0933C01BF91AF919F918F913F91D6
:100EB0002F910F900FBE0F901F9018952FB7F89499
:100EC0006091350170913601809137019091380120
:100ED0002FBF0895789484B5826084BD84B5816005
:100EE00084BD85B5826085BD85B5816085BDEEE632
:100EF000F0E0808181608083E1E8F0E01082808111
:100F000082608083808181608083E0E8F0E080817E
:100F100081608083E1EBF0E0808184608083E0EB9E
:100F2000F0E0808181608083EAE7F0E08081846086
:100F300080838081826080838081816080838081E2
:100F4000806880831092C1000895833081F028F476
:100F5000813099F08230A1F008958730A9F088306F
:100F6000B9F08430D1F4809180008F7D03C08091EE
:100F700080008F7780938000089584B58F7702C0BA
:100F800084B58F7D84BD08958091B0008F7703C0B4
:100F90008091B0008F7D8093B0000895CF93DF9350
:100FA00090E0FC01E15DFE4F2491FC01ED5BFE4F02
:100FB0008491882349F190E0880F991FFC01E5593D
:100FC000FE4FA591B4918F599E4FFC01C591D491CC
:100FD0009FB7611108C0F8948C91209582238C935F
:100FE000888182230AC0623051F4F8948C91322FA8
:100FF000309583238C938881822B888304C0F89456
:101000008C91822B8C939FBFDF91CF910895CF93CA
:10101000DF93282F30E0F901E55EFE4F8491F9015E
:10102000E15DFE4FD491F901ED5BFE4FC491CC23FD
:1010300091F081110E94A507EC2FF0E0EE0FFF1F49
:10104000E95AFE4FA591B4912C912D2381E090E0B7
:1010500021F480E002C080E090E0DF91CF9108951C
:1010600008950E946A070E9430080E949803C0E019
:10107000D0E00E9403042097E1F30E940000F9CF22
:101080000C947008CF92DF92EF92FF920F931F9310
:10109000CF93DF936C017A01EB01E60EF71E00E0BF
:1010A00010E0CE15DF0561F06991D601ED91FC915C
:1010B0000190F081E02DC6010995080F191FF1CFAD
:1010C000C801DF91CF911F910F91FF90EF90DF90BA
:1010D000CF900895EE0FFF1F0590F491E02D099435
:1010E000CF93DF938230910510F482E090E0E0919D
:1010F0007D01F0917E0120E030E0A0E0B0E030978B
:1011000039F14081518148175907B8F048175907FC
:1011100071F482819381109729F013969C938E939A
:1011200012972CC090937E0180937D0127C02115DA
:10113000310531F04217530718F0A901DB0101C056
:10114000EF019A01BD01DF010280F381E02DD7CFCD
:1011500021153105F9F0281B390B2430310580F4B5
:101160008A819B816115710521F0FB019383828344
:1011700004C090937E0180937D01FE01329644C0AD
:10118000FE01E20FF31F81939193225031093983BD
:1011900028833AC020917B0130917C01232B41F4BC
:1011A000209102013091030130937C0120937B0157
:1011B00020910001309101012115310541F42DB735
:1011C0003EB74091040150910501241B350BE0917D
:1011D0007B01F0917C01E217F307A0F42E1B3F0B7B
:1011E0002817390778F0AC014E5F5F4F2417350799
:1011F00048F04E0F5F1F50937C0140937B01819319
:10120000919302C0E0E0F0E0CF01DF91CF9108952B
:10121000CF93DF93009709F487C0FC0132971382C4
:101220001282C0917D01D0917E01209781F42081AE
:101230003181280F391F80917B0190917C018217A9
:10124000930779F5F0937C01E0937B016DC0DE019B
:1012500020E030E0AE17BF0750F412964D915C913C
:1012600013979D014115510509F1DA01F3CFB383BD
:10127000A28340815181840F951F8A179B0771F4C7
:101280008D919C911197840F951F02969183808375
:1012900012968D919C91139793838283211531052A
:1012A00029F4F0937E01E0937D013EC0D9011396AD
:1012B000FC93EE9312974D915D91A40FB51FEA1721
:1012C000FB0779F480819181840F951F0296D901E3
:1012D00011969C938E938281938113969C938E9307
:1012E0001297E0E0F0E08A819B81009719F0FE01FF
:1012F000EC01F9CFCE01029628813981820F931F2C
:1013000020917B0130917C012817390769F43097CF
:1013100029F410927E0110927D0102C01382128284
:10132000D0937C01C0937B01DF91CF910895F89415
:02133000FFCFED
:1013320000007F0180007DFF5A0000000004074288
:021342000800A1
:00000001FF
