:100000000C94B3000C9409010C94DB000C94DB00FD
:100010000C94DB000C94DB000C94DB000C94DB00F4
:100020000C94DB000C94DB000C94DB000C94DB00E4
:100030000C94DB000C94DB000C94DB000C94DB00D4
:100040000C94E2050C94DB000C94DB000C94DB00B8
:100050000C94DB000C94DB000C94DB000C94DB00B4
:100060000C94DB000C94DB0005010906A1010507D7
:1000700019E029E715002501750195088102950110
:100080007508810395057501050819012905910277
:1000900095017503910395067508150025650507FB
:1000A000190029658100C009022200010100806455
:1000B00009040000010300000009210101000122E0
:1000C0003F000705810308000A120110010000002B
:1000D00008811734240001010200012A0350007234
:1000E000006F0020005400720069006E006B006514
:1000F00000740020004B006500790062006F006111
:100100000072006400120341006400610066007226
:100110000075006900740004030904000000080071
:1001200002010000030407000000000000000001BD
:10013000020408102040800102040810200102047B
:10014000081020040404040404040402020202024D
:100150000203030303030300000000230026002919
:1001600000009E02D70511241FBECFEFD8E0DEBFEE
:10017000CDBF11E0A0E0B1E0EAE0FEE002C00590F2
:100180000D92AC30B107D9F721E0ACE0B1E001C08D
:100190001D92AF37B207E1F711E0C6E6D1E004C027
:1001A0002297FE010E94FF06C236D107C9F70E94BE
:1001B000C6060C9403070C940000A82FB92F80E00A
:1001C00090E041E050EA609530E009C02D9182272F
:1001D0009795879510F084279527305EC8F36F5F59
:1001E000A8F30895EADF8D939D930895A6E08827EC
:1001F0009927AA9569F00197E1F34F99FCCF4F9B9E
:10020000FECF81E09927A9B1019611F0A478D9F722
:100210000895CF93CFB7CF93DF93C3954F9BE9F763
:100220004F9B0BC04F9B09C04F9B07C04F9B05C006
:100230004F9B03C04F9B01C08BC06F93C091620165
:10024000DD27C759DE4F2F9365E54F9B03C02F91E4
:100250006F91E6CF0F931F934F9320E040E15F93A0
:1002600009B1047807FB27F93F9350E03BE039C020
:10027000147840642F77012F5F5F1EC0406819B16A
:1002800014782F7752501FC0406409B12F7704783B
:10029000D1F15F5F00C023C0406219B12F7714789D
:1002A00091F15F5F00C025C004781027515012F40F
:1002B0005D5F0000115027952C3F19B1C8F61478E6
:1002C0000127015027952C3FC8F64227499309B1D1
:1002D000047810274F73115027952C3FA8F64695A8
:1002E000469519B1147879F00127015027952C3FD4
:1002F00098F66B5A60F3315009B1B0F600C011E0C6
:100300001CBB002719C03B503195C31BD04011E0E6
:100310001CBB0881033C09F10B34F9F0209160010A
:100320001981110F1213EDCF4A81441F093651F183
:100330000D3211F0013E29F7009367013F915F9163
:100340004F911F910F912F916F91CCB3C0FD65CF4D
:10035000DF91CF91CFBFCF911895209167012223D4
:1003600069F310916501112391F5343092F13093C6
:10037000650120936101109162013BE0311B3093D4
:10038000620127C00091650101300CF50AE54F704C
:1003900049F43091020134FD1DC000930201C9E40B
:1003A000D1E01CC03091540134FD14C000935401BD
:1003B000C5E5D1E013C0052710E000C000000BB96F
:1003C0001AC0052710E0221F1DC010E021C04AE519
:1003D00002C032ED432FC4E1D0E032E01AB114681C
:1003E0005F9A0BB11AB954E820E865E320FF0527AE
:1003F0000BB9279517951C3FF0F66695B8F7B1F73E
:1004000020FF05270BB9279517951C3FD0F6279598
:10041000179517FF052700001C3F0BB9B0F629916F
:100420003A9519F70B7710916601110FC651D0401C
:100430000BB911F01093600111E01CBB00681AB1F8
:100440001B77402F4B7754E05A95F1F70BB91AB947
:100450004BB974CFCF92DF92EF92FF92CF93DF939D
:10046000EC0188810E949C0621E0892B09F020E0A4
:100470002B87222381F08E81811120C081E08E8321
:100480000E942C066C597F4F8F4F9F4F6F83788748
:1004900089879A8721C0CF80D884E984FA840E9412
:1004A0002C066C157D058E059F05F0F04F81588553
:1004B00069857A85452B462B472BB1F08E818823A1
:1004C00059F0CF80D884E984FA840E942C066C15F8
:1004D0007D058E059F0580F08B85DF91CF91FF9084
:1004E000EF90DF90CF90089540E060E084E391E0EA
:1004F0000E94AB041E82F0CF8B85882369F31F8294
:10050000188619861A864A816C8184E391E00E94DC
:10051000AB04E2CF84E391E00C94A70484E391E080
:100520000E94A90484E291E00E942A0288E191E0FD
:100530000E942A028CE091E00C942A0283E090E071
:10054000909325018093240184E090E0909327010B
:100550008093260110922B0110922C0110922D01F4
:1005600010922E0110922A0110922F01109229014F
:1005700010922801909319018093180185E090E072
:1005800090931B0180931A0110921F011092200179
:10059000109221011092220110921E01109223014B
:1005A00010921D0110921C0190930D0180930C017B
:1005B00086E090E090930F0180930E01109213015A
:1005C000109214011092150110921601109212014E
:1005D0001092170110921101109210010895F894D1
:1005E0008BB18B778BB9579A2FEF84E39CE0215026
:1005F00080409040E1F700C0000057980E949A04A4
:10060000789408950C9477030E94770380915401A5
:1006100084FFFACF68E081E491E00C945203FC017E
:1006200081E08093320180818076803299F58181EA
:10063000833099F038F48130E1F0823059F580E070
:1006400091E00DC08A3029F08B3079F0893011F5B6
:1006500018C08381809300011DC081E391E09093D5
:1006600064018093630181E0089583818093310167
:1006700011C081E491E0909364018093630188E06C
:10068000089581E0268137812130310509F080E02D
:100690008195089580E00895FC0180818093300168
:1006A00081E00895CF93C62F2091540124FF07C005
:1006B0002091550138E823272093550103C02AE5EE
:1006C00020935401DC01E6E5F1E09C2F9E0F8D9113
:1006D0008193892F8E1B1816D4F36C2F86E591E039
:1006E0000E94F200CC5FC0935401CF910895CF9344
:1006F000DF9360916501635067FDBEC08091620128
:10070000CCE0D0E0C81BD109C759DE4F8091610110
:100710008D3209F09FC0683009F0ACC083EC809343
:1007200049018AE580930201109233018881807625
:1007300021F0CE010E940F037AC09A8110925201DB
:100740008981811106C01092530122E531E082E0D7
:100750006AC0853019F49093660162C0863009F052
:1007600049C08B81813019F489EC90E01AC0823045
:1007700041F487EA90E0909364018093630182E200
:1007800035C08330F1F4911108C087E191E0909376
:1007900064018093630184E029C0913041F485E0D5
:1007A00091E0909364018093630182E11FC09230D5
:1007B000E1F48BED90E090936401809363018AE211
:1007C00015C0813241F489EB90E0909364018093ED
:1007D000630189E00BC0823241F488E690E0909397
:1007E0006401809363018FE301C080E090E4909303
:1007F00033011DC0883069F0893019F49093680185
:100800000FC08A3049F08B3059F48BE48093550146
:1008100007C028E631E002C022E531E081E003C0F4
:1008200022E531E080E030936401209363018F3F43
:1008300039F4988197FD8E8190E89093330107C039
:100840009F81911104C09E81981708F4892F80938D
:10085000010110C08091330187FF0CC0CE010E94BE
:100860004C038F3F21F48EE18093020103C081117C
:1008700010920101109265018091020184FF4DC028
:10088000809101018F3F09F448C0C82F893008F0DA
:10089000C8E08C1B809301018091490198E8892769
:1008A00080934901CC2361F18091630190916401AF
:1008B0002091330126FF12C0AAE4B1E029E431E01F
:1008C00020953095280F391F4C2F4A0FF901EA0F58
:1008D000FB1FE491ED934A13F9CF09C0EAE4F1E07C
:1008E000DC012C2F2E0F3D9131932E13FCCF01965E
:1008F0002FEF2C0F820F911D909364018093630161
:100900006C2F8AE491E00E94F200CC5FCC3019F0A9
:100910008FEF80930101C093020184E199B1947833
:1009200031F48150D9F71092660110926001DF9185
:10093000CF910895E9E6F0E0808182608083E89AB3
:100940008BE4809355018AE58093540108950C94BB
:10095000EF020C9402036093410110924201409314
:1009600043011092440110924501109246011092E9
:100970004701109248010C940403CF93DF931F9218
:10098000CDB7DEB76983DA01F90110821C929FEBC3
:10099000980F9A3130F48D538083898181FF0AC08A
:1009A0000CC09FE9980F9A3150F48D55808389814E
:1009B00081FF03C082E08C93CDC01C92CBC090ED30
:1009C000980F9A3028F4803309F49AC08351C1C03B
:1009D0008F3209F4B9C0D0F5863209F485C0F0F43D
:1009E000813209F46DC058F48A3009F4B1C0803204
:1009F00009F4ACC0893009F0ADC08BE2AAC08332E3
:100A000009F466C008F492C0843209F465C08532E6
:100A100009F0A0C082E08C9382E29BC08A3209F484
:100A200067C040F4883209F467C008F481C082E0EE
:100A30008C9366C08C3209F47FC008F467C08D3295
:100A400009F462C08E3209F47BC084C08C3509F48D
:100A500069C0D0F48D3309F45BC058F48B3309F4CA
:100A600063C008F067C08A3309F074C082E08C93D9
:100A70005BC08F3309F466C008F460C0803421F194
:100A80008B3509F447C066C08036E1F138F48E3505
:100A900039F108F443C082E08C9336C08C3709F4F6
:100AA0003FC030F48B3709F055C082E08C9332C0E0
:100AB0008D3791F18E3709F04DC082E08C9322C0C2
:100AC00082E08C938EE145C082E08C938FE141C03F
:100AD00082E08C9380E23DC082E08C9381E239C059
:100AE00082E08C9383E235C082E08C9384E231C053
:100AF00082E08C9385E22DC082E08C9386E229C04F
:100B000087E227C085E325C08DE223C082E08C9375
:100B10008EE21FC08FE21DC082E08C9380E319C07B
:100B200082E08C9381E315C083E313C082E08C9351
:100B300084E30FC082E08C9386E30BC082E08C9349
:100B400087E307C082E08C9388E303C08CE201C096
:100B500088E280830F90DF91CF9108950F931F93C8
:100B6000CF93DF9300D0CDB7DEB78C01862F9E01E7
:100B70002F5F3F4FAE014E5F5F4F609130010E948B
:100B8000BD0449816A81C8010E94AB0440E060E075
:100B9000C8010E94AB040F900F90DF91CF911F917D
:100BA0000F9108950E94AE0581E090E008951092A3
:100BB00037011092360187E091E0909335018093E0
:100BC000340108951F920F920FB60F9211242F93A4
:100BD0003F938F939F93AF93BF93809139019091EF
:100BE0003A01A0913B01B0913C013091380123E0E2
:100BF000230F2D3720F40196A11DB11D05C026E855
:100C0000230F0296A11DB11D209338018093390155
:100C100090933A01A0933B01B0933C0180913D0138
:100C200090913E01A0913F01B09140010196A11D1C
:100C3000B11D80933D0190933E01A0933F01B0937D
:100C40004001BF91AF919F918F913F912F910F9054
:100C50000FBE0F901F9018952FB7F894609139012F
:100C600070913A0180913B0190913C012FBF089512
:100C7000789484B5826084BD84B5816084BD85B577
:100C8000826085BD85B5816085BDEEE6F0E080813E
:100C900081608083E1E8F0E010828081826080835F
:100CA000808181608083E0E8F0E0808181608083E2
:100CB000E1EBF0E0808184608083E0EBF0E0808114
:100CC00081608083EAE7F0E08081846080838081B6
:100CD000826080838081816080838081806880835E
:100CE0001092C1000895833081F028F4813099F08A
:100CF0008230A1F008958730A9F08830B9F08430AF
:100D0000D1F4809180008F7D03C0809180008F7727
:100D100080938000089584B58F7702C084B58F7D5D
:100D200084BD08958091B0008F7703C08091B0009A
:100D30008F7D8093B0000895CF93DF93282F30E00C
:100D4000F901E55EFE4F8491F901E15DFE4FD4911A
:100D5000F901ED5BFE4FC491CC2391F081110E940B
:100D60007306EC2FF0E0EE0FFF1FE95AFE4FA5913E
:100D7000B4912C912D2381E090E021F480E002C019
:100D800080E090E0DF91CF91089508950E943806A9
:100D90000E94C5060E948A02C0E0D0E00E948E0236
:100DA0002097E1F30E940000F9CFCF92DF92EF92FB
:100DB000FF920F931F93CF93DF936C017A01EB01A6
:100DC000E60EF71E00E010E0CE15DF0561F0699138
:100DD000D601ED91FC910190F081E02DC6010995BD
:100DE000080F191FF1CFC801DF91CF911F910F910B
:100DF000FF90EF90DF90CF900895EE0FFF1F0590CA
:0A0E0000F491E02D0994F894FFCF5F
:0C0E0A007DFF5A00000000D205D5060054
:00000001FF
